###############################################################################
#
# IAR ELF Linker V7.70.1.11437/W32 for ARM                18/May/2017  15:30:15
# Copyright 2007-2016 IAR Systems AB.
#
#    Output file  =  
#        C:\Users\Usager\Documents\STM32CubeMx\usbHsIAR\usbHsIAR\EWARM\usbHsIAR\Exe\usbHsIAR.out
#    Map file     =  
#        C:\Users\Usager\Documents\STM32CubeMx\usbHsIAR\usbHsIAR\EWARM\usbHsIAR\List\usbHsIAR.map
#    Command line =  
#        C:\Users\Usager\Documents\STM32CubeMx\usbHsIAR\usbHsIAR\EWARM\usbHsIAR\Obj\bypassComm.o
#        C:\Users\Usager\Documents\STM32CubeMx\usbHsIAR\usbHsIAR\EWARM\usbHsIAR\Obj\datalinkV2.o
#        C:\Users\Usager\Documents\STM32CubeMx\usbHsIAR\usbHsIAR\EWARM\usbHsIAR\Obj\fifo.o
#        C:\Users\Usager\Documents\STM32CubeMx\usbHsIAR\usbHsIAR\EWARM\usbHsIAR\Obj\gpioDriver.o
#        C:\Users\Usager\Documents\STM32CubeMx\usbHsIAR\usbHsIAR\EWARM\usbHsIAR\Obj\main.o
#        C:\Users\Usager\Documents\STM32CubeMx\usbHsIAR\usbHsIAR\EWARM\usbHsIAR\Obj\pcComm.o
#        C:\Users\Usager\Documents\STM32CubeMx\usbHsIAR\usbHsIAR\EWARM\usbHsIAR\Obj\remoteComm.o
#        C:\Users\Usager\Documents\STM32CubeMx\usbHsIAR\usbHsIAR\EWARM\usbHsIAR\Obj\startup_stm32f205xx.o
#        C:\Users\Usager\Documents\STM32CubeMx\usbHsIAR\usbHsIAR\EWARM\usbHsIAR\Obj\stm32f2xx_hal.o
#        C:\Users\Usager\Documents\STM32CubeMx\usbHsIAR\usbHsIAR\EWARM\usbHsIAR\Obj\stm32f2xx_hal_adc.o
#        C:\Users\Usager\Documents\STM32CubeMx\usbHsIAR\usbHsIAR\EWARM\usbHsIAR\Obj\stm32f2xx_hal_adc_ex.o
#        C:\Users\Usager\Documents\STM32CubeMx\usbHsIAR\usbHsIAR\EWARM\usbHsIAR\Obj\stm32f2xx_hal_can.o
#        C:\Users\Usager\Documents\STM32CubeMx\usbHsIAR\usbHsIAR\EWARM\usbHsIAR\Obj\stm32f2xx_hal_cortex.o
#        C:\Users\Usager\Documents\STM32CubeMx\usbHsIAR\usbHsIAR\EWARM\usbHsIAR\Obj\stm32f2xx_hal_crc.o
#        C:\Users\Usager\Documents\STM32CubeMx\usbHsIAR\usbHsIAR\EWARM\usbHsIAR\Obj\stm32f2xx_hal_cryp.o
#        C:\Users\Usager\Documents\STM32CubeMx\usbHsIAR\usbHsIAR\EWARM\usbHsIAR\Obj\stm32f2xx_hal_dac.o
#        C:\Users\Usager\Documents\STM32CubeMx\usbHsIAR\usbHsIAR\EWARM\usbHsIAR\Obj\stm32f2xx_hal_dac_ex.o
#        C:\Users\Usager\Documents\STM32CubeMx\usbHsIAR\usbHsIAR\EWARM\usbHsIAR\Obj\stm32f2xx_hal_dcmi.o
#        C:\Users\Usager\Documents\STM32CubeMx\usbHsIAR\usbHsIAR\EWARM\usbHsIAR\Obj\stm32f2xx_hal_dma.o
#        C:\Users\Usager\Documents\STM32CubeMx\usbHsIAR\usbHsIAR\EWARM\usbHsIAR\Obj\stm32f2xx_hal_dma_ex.o
#        C:\Users\Usager\Documents\STM32CubeMx\usbHsIAR\usbHsIAR\EWARM\usbHsIAR\Obj\stm32f2xx_hal_eth.o
#        C:\Users\Usager\Documents\STM32CubeMx\usbHsIAR\usbHsIAR\EWARM\usbHsIAR\Obj\stm32f2xx_hal_flash.o
#        C:\Users\Usager\Documents\STM32CubeMx\usbHsIAR\usbHsIAR\EWARM\usbHsIAR\Obj\stm32f2xx_hal_flash_ex.o
#        C:\Users\Usager\Documents\STM32CubeMx\usbHsIAR\usbHsIAR\EWARM\usbHsIAR\Obj\stm32f2xx_hal_gpio.o
#        C:\Users\Usager\Documents\STM32CubeMx\usbHsIAR\usbHsIAR\EWARM\usbHsIAR\Obj\stm32f2xx_hal_hash.o
#        C:\Users\Usager\Documents\STM32CubeMx\usbHsIAR\usbHsIAR\EWARM\usbHsIAR\Obj\stm32f2xx_hal_hcd.o
#        C:\Users\Usager\Documents\STM32CubeMx\usbHsIAR\usbHsIAR\EWARM\usbHsIAR\Obj\stm32f2xx_hal_i2c.o
#        C:\Users\Usager\Documents\STM32CubeMx\usbHsIAR\usbHsIAR\EWARM\usbHsIAR\Obj\stm32f2xx_hal_i2s.o
#        C:\Users\Usager\Documents\STM32CubeMx\usbHsIAR\usbHsIAR\EWARM\usbHsIAR\Obj\stm32f2xx_hal_irda.o
#        C:\Users\Usager\Documents\STM32CubeMx\usbHsIAR\usbHsIAR\EWARM\usbHsIAR\Obj\stm32f2xx_hal_iwdg.o
#        C:\Users\Usager\Documents\STM32CubeMx\usbHsIAR\usbHsIAR\EWARM\usbHsIAR\Obj\stm32f2xx_hal_msp.o
#        C:\Users\Usager\Documents\STM32CubeMx\usbHsIAR\usbHsIAR\EWARM\usbHsIAR\Obj\stm32f2xx_hal_nand.o
#        C:\Users\Usager\Documents\STM32CubeMx\usbHsIAR\usbHsIAR\EWARM\usbHsIAR\Obj\stm32f2xx_hal_nor.o
#        C:\Users\Usager\Documents\STM32CubeMx\usbHsIAR\usbHsIAR\EWARM\usbHsIAR\Obj\stm32f2xx_hal_pccard.o
#        C:\Users\Usager\Documents\STM32CubeMx\usbHsIAR\usbHsIAR\EWARM\usbHsIAR\Obj\stm32f2xx_hal_pcd.o
#        C:\Users\Usager\Documents\STM32CubeMx\usbHsIAR\usbHsIAR\EWARM\usbHsIAR\Obj\stm32f2xx_hal_pcd_ex.o
#        C:\Users\Usager\Documents\STM32CubeMx\usbHsIAR\usbHsIAR\EWARM\usbHsIAR\Obj\stm32f2xx_hal_pwr.o
#        C:\Users\Usager\Documents\STM32CubeMx\usbHsIAR\usbHsIAR\EWARM\usbHsIAR\Obj\stm32f2xx_hal_pwr_ex.o
#        C:\Users\Usager\Documents\STM32CubeMx\usbHsIAR\usbHsIAR\EWARM\usbHsIAR\Obj\stm32f2xx_hal_rcc.o
#        C:\Users\Usager\Documents\STM32CubeMx\usbHsIAR\usbHsIAR\EWARM\usbHsIAR\Obj\stm32f2xx_hal_rcc_ex.o
#        C:\Users\Usager\Documents\STM32CubeMx\usbHsIAR\usbHsIAR\EWARM\usbHsIAR\Obj\stm32f2xx_hal_rng.o
#        C:\Users\Usager\Documents\STM32CubeMx\usbHsIAR\usbHsIAR\EWARM\usbHsIAR\Obj\stm32f2xx_hal_rtc.o
#        C:\Users\Usager\Documents\STM32CubeMx\usbHsIAR\usbHsIAR\EWARM\usbHsIAR\Obj\stm32f2xx_hal_rtc_ex.o
#        C:\Users\Usager\Documents\STM32CubeMx\usbHsIAR\usbHsIAR\EWARM\usbHsIAR\Obj\stm32f2xx_hal_sd.o
#        C:\Users\Usager\Documents\STM32CubeMx\usbHsIAR\usbHsIAR\EWARM\usbHsIAR\Obj\stm32f2xx_hal_smartcard.o
#        C:\Users\Usager\Documents\STM32CubeMx\usbHsIAR\usbHsIAR\EWARM\usbHsIAR\Obj\stm32f2xx_hal_spi.o
#        C:\Users\Usager\Documents\STM32CubeMx\usbHsIAR\usbHsIAR\EWARM\usbHsIAR\Obj\stm32f2xx_hal_sram.o
#        C:\Users\Usager\Documents\STM32CubeMx\usbHsIAR\usbHsIAR\EWARM\usbHsIAR\Obj\stm32f2xx_hal_tim.o
#        C:\Users\Usager\Documents\STM32CubeMx\usbHsIAR\usbHsIAR\EWARM\usbHsIAR\Obj\stm32f2xx_hal_tim_ex.o
#        C:\Users\Usager\Documents\STM32CubeMx\usbHsIAR\usbHsIAR\EWARM\usbHsIAR\Obj\stm32f2xx_hal_uart.o
#        C:\Users\Usager\Documents\STM32CubeMx\usbHsIAR\usbHsIAR\EWARM\usbHsIAR\Obj\stm32f2xx_hal_usart.o
#        C:\Users\Usager\Documents\STM32CubeMx\usbHsIAR\usbHsIAR\EWARM\usbHsIAR\Obj\stm32f2xx_hal_wwdg.o
#        C:\Users\Usager\Documents\STM32CubeMx\usbHsIAR\usbHsIAR\EWARM\usbHsIAR\Obj\stm32f2xx_it.o
#        C:\Users\Usager\Documents\STM32CubeMx\usbHsIAR\usbHsIAR\EWARM\usbHsIAR\Obj\stm32f2xx_ll_fsmc.o
#        C:\Users\Usager\Documents\STM32CubeMx\usbHsIAR\usbHsIAR\EWARM\usbHsIAR\Obj\stm32f2xx_ll_sdmmc.o
#        C:\Users\Usager\Documents\STM32CubeMx\usbHsIAR\usbHsIAR\EWARM\usbHsIAR\Obj\stm32f2xx_ll_usb.o
#        C:\Users\Usager\Documents\STM32CubeMx\usbHsIAR\usbHsIAR\EWARM\usbHsIAR\Obj\system_stm32f2xx.o
#        C:\Users\Usager\Documents\STM32CubeMx\usbHsIAR\usbHsIAR\EWARM\usbHsIAR\Obj\timerDriver.o
#        C:\Users\Usager\Documents\STM32CubeMx\usbHsIAR\usbHsIAR\EWARM\usbHsIAR\Obj\uartDriver.o
#        C:\Users\Usager\Documents\STM32CubeMx\usbHsIAR\usbHsIAR\EWARM\usbHsIAR\Obj\usbd_cdc.o
#        C:\Users\Usager\Documents\STM32CubeMx\usbHsIAR\usbHsIAR\EWARM\usbHsIAR\Obj\usbd_cdc_if.o
#        C:\Users\Usager\Documents\STM32CubeMx\usbHsIAR\usbHsIAR\EWARM\usbHsIAR\Obj\usbd_conf.o
#        C:\Users\Usager\Documents\STM32CubeMx\usbHsIAR\usbHsIAR\EWARM\usbHsIAR\Obj\usbd_core.o
#        C:\Users\Usager\Documents\STM32CubeMx\usbHsIAR\usbHsIAR\EWARM\usbHsIAR\Obj\usbd_ctlreq.o
#        C:\Users\Usager\Documents\STM32CubeMx\usbHsIAR\usbHsIAR\EWARM\usbHsIAR\Obj\usbd_desc.o
#        C:\Users\Usager\Documents\STM32CubeMx\usbHsIAR\usbHsIAR\EWARM\usbHsIAR\Obj\usbd_ioreq.o
#        C:\Users\Usager\Documents\STM32CubeMx\usbHsIAR\usbHsIAR\EWARM\usbHsIAR\Obj\usbDriver.o
#        --redirect _Printf=_PrintfFull --redirect _Scanf=_ScanfFull -o
#        C:\Users\Usager\Documents\STM32CubeMx\usbHsIAR\usbHsIAR\EWARM\usbHsIAR\Exe\usbHsIAR.out
#        --map
#        C:\Users\Usager\Documents\STM32CubeMx\usbHsIAR\usbHsIAR\EWARM\usbHsIAR\List\usbHsIAR.map
#        --config
#        C:\Users\Usager\Documents\STM32CubeMx\usbHsIAR\usbHsIAR\EWARM/stm32f205xx_flash.icf
#        --semihosting --entry __iar_program_start --vfe
#
###############################################################################

*******************************************************************************
*** RUNTIME MODEL ATTRIBUTES
***

CppFlavor       = *
__Heap_Handler  = DLMalloc
__SystemLibrary = DLib


*******************************************************************************
*** PLACEMENT SUMMARY
***

"A0":  place at 0x08000000 { ro section .intvec };
"P1":  place in [from 0x08000000 to 0x080fffff] { ro };
"P2":  place in [from 0x20000000 to 0x20020000] { rw, block CSTACK, block HEAP };
initialize by copy { rw };

  Section            Kind        Address    Size  Object
  -------            ----        -------    ----  ------
"A0":                                      0x184
  .intvec            ro code  0x08000000   0x184  startup_stm32f205xx.o [1]
                            - 0x08000184   0x184

"P1":                                     0x4925
  .text              ro code  0x08000184  0x14f4  dlmalloc.o [3]
  .text              ro code  0x08001678     0x6  abort.o [3]
  .text              ro code  0x08001680    0x2c  xgetmemchunk.o [3]
  .text              ro code  0x080016ac    0x14  exit.o [5]
  .text              ro code  0x080016c0   0x840  stm32f2xx_ll_usb.o [1]
  .text              ro code  0x08001f00    0x18  stm32f2xx_hal.o [1]
  .text              ro code  0x08001f18     0xc  stm32f2xx_hal.o [1]
  .text              ro code  0x08001f24   0x80a  stm32f2xx_hal_pcd.o [1]
  .text              ro code  0x08002730   0x276  usbd_conf.o [1]
  .text              ro code  0x080029a8    0x76  ABImemcpy_unaligned.o [4]
  .text              ro code  0x08002a20   0x414  stm32f2xx_hal_rcc.o [1]
  .text              ro code  0x08002e34   0x1e8  stm32f2xx_hal_gpio.o [1]
  .text              ro code  0x0800301c    0xde  stm32f2xx_hal_cortex.o [1]
  .text              ro code  0x080030fa   0x26c  usbd_core.o [1]
  .text              ro code  0x08003368   0x110  main.o [1]
  .text              ro code  0x08003478    0x46  stm32f2xx_hal_pcd_ex.o [1]
  .text              ro code  0x080034c0    0x28  stm32f2xx_hal.o [1]
  .text              ro code  0x080034e8   0x3be  usbd_ctlreq.o [1]
  .text              ro code  0x080038a6    0x62  usbd_ioreq.o [1]
  .text              ro code  0x08003908    0x34  stm32f2xx_hal.o [1]
  .text              ro code  0x0800393c    0xdc  gpioDriver.o [1]
  .text              ro code  0x08003a18    0x54  bypassComm.o [1]
  .text              ro code  0x08003a6c    0x48  remoteComm.o [1]
  .text              ro code  0x08003ab4   0x116  pcComm.o [1]
  .text              ro code  0x08003bca    0x60  stm32f2xx_hal_msp.o [1]
  .text              ro code  0x08003c2c   0x2b8  uartDriver.o [1]
  .text              ro code  0x08003ee4   0x170  datalinkV2.o [1]
  .text              ro code  0x08004054    0x88  usbDriver.o [1]
  .text              ro code  0x080040dc    0x8a  fifo.o [1]
  .text              ro code  0x08004168   0x1f0  stm32f2xx_hal_uart.o [1]
  .text              ro code  0x08004358   0x24c  usbd_cdc.o [1]
  .text              ro code  0x080045a4    0x84  usbd_cdc_if.o [1]
  .text              ro code  0x08004628    0xb0  usbd_desc.o [1]
  .text              ro code  0x080046d8    0x78  lz77_init_single.o [4]
  .text              ro code  0x08004750    0x40  system_stm32f2xx.o [1]
  .text              ro code  0x08004790    0x40  zero_init3.o [4]
  .text              ro code  0x080047d0    0x28  stm32f2xx_it.o [1]
  .text              ro code  0x080047f8    0x10  stm32f2xx_hal.o [1]
  .text              ro code  0x08004808    0x28  data_init.o [4]
  .iar.init_table    const    0x08004830    0x20  - Linker created -
  .text              ro code  0x08004850    0x1a  cmain.o [4]
  .text              ro code  0x0800486a     0x4  low_level_init.o [3]
  .text              ro code  0x0800486e     0x4  exit.o [3]
  .text              ro code  0x08004874     0xa  cexit.o [4]
  .rodata            const    0x08004880    0x18  gpioDriver.o [1]
  .text              ro code  0x08004898    0x10  startup_stm32f205xx.o [1]
  .text              ro code  0x080048a8     0xc  cstartup_M.o [4]
  .text              ro code  0x080048b4     0x4  startup_stm32f205xx.o [1]
  .text              ro code  0x080048b8     0x4  startup_stm32f205xx.o [1]
  .text              ro code  0x080048bc     0x4  startup_stm32f205xx.o [1]
  .text              ro code  0x080048c0     0x4  startup_stm32f205xx.o [1]
  .text              ro code  0x080048c4     0x4  startup_stm32f205xx.o [1]
  .text              ro code  0x080048c8     0x4  startup_stm32f205xx.o [1]
  .text              ro code  0x080048cc     0x4  startup_stm32f205xx.o [1]
  .text              ro code  0x080048d0     0x4  startup_stm32f205xx.o [1]
  .text              ro code  0x080048d4     0x4  startup_stm32f205xx.o [1]
  .text              ro code  0x080048d8     0x4  startup_stm32f205xx.o [1]
  .text              ro code  0x080048dc     0x4  startup_stm32f205xx.o [1]
  .text              ro code  0x080048e0     0x4  startup_stm32f205xx.o [1]
  .text              ro code  0x080048e4     0x4  startup_stm32f205xx.o [1]
  .text              ro code  0x080048e8     0x4  startup_stm32f205xx.o [1]
  .text              ro code  0x080048ec     0x4  startup_stm32f205xx.o [1]
  .text              ro code  0x080048f0     0x4  startup_stm32f205xx.o [1]
  .text              ro code  0x080048f4     0x4  startup_stm32f205xx.o [1]
  .text              ro code  0x080048f8     0x4  startup_stm32f205xx.o [1]
  .text              ro code  0x080048fc     0x4  startup_stm32f205xx.o [1]
  .text              ro code  0x08004900     0x4  startup_stm32f205xx.o [1]
  .text              ro code  0x08004904     0x4  startup_stm32f205xx.o [1]
  .text              ro code  0x08004908     0x4  startup_stm32f205xx.o [1]
  .text              ro code  0x0800490c     0x4  startup_stm32f205xx.o [1]
  .text              ro code  0x08004910     0x4  startup_stm32f205xx.o [1]
  .text              ro code  0x08004914     0x4  startup_stm32f205xx.o [1]
  .text              ro code  0x08004918     0x4  startup_stm32f205xx.o [1]
  .text              ro code  0x0800491c     0x4  startup_stm32f205xx.o [1]
  .text              ro code  0x08004920     0x4  startup_stm32f205xx.o [1]
  .text              ro code  0x08004924     0x4  startup_stm32f205xx.o [1]
  .text              ro code  0x08004928     0x4  startup_stm32f205xx.o [1]
  .text              ro code  0x0800492c     0x4  startup_stm32f205xx.o [1]
  .text              ro code  0x08004930     0x4  startup_stm32f205xx.o [1]
  .text              ro code  0x08004934     0x4  startup_stm32f205xx.o [1]
  .text              ro code  0x08004938     0x4  startup_stm32f205xx.o [1]
  .text              ro code  0x0800493c     0x4  startup_stm32f205xx.o [1]
  .text              ro code  0x08004940     0x4  startup_stm32f205xx.o [1]
  .text              ro code  0x08004944     0x4  startup_stm32f205xx.o [1]
  .text              ro code  0x08004948     0x4  startup_stm32f205xx.o [1]
  .text              ro code  0x0800494c     0x4  startup_stm32f205xx.o [1]
  .text              ro code  0x08004950     0x4  startup_stm32f205xx.o [1]
  .text              ro code  0x08004954     0x4  startup_stm32f205xx.o [1]
  .text              ro code  0x08004958     0x4  startup_stm32f205xx.o [1]
  .text              ro code  0x0800495c     0x4  startup_stm32f205xx.o [1]
  .text              ro code  0x08004960     0x4  startup_stm32f205xx.o [1]
  .text              ro code  0x08004964     0x4  startup_stm32f205xx.o [1]
  .text              ro code  0x08004968     0x4  startup_stm32f205xx.o [1]
  .text              ro code  0x0800496c     0x4  startup_stm32f205xx.o [1]
  .text              ro code  0x08004970     0x4  startup_stm32f205xx.o [1]
  .text              ro code  0x08004974     0x4  startup_stm32f205xx.o [1]
  .text              ro code  0x08004978     0x4  startup_stm32f205xx.o [1]
  .text              ro code  0x0800497c     0x4  startup_stm32f205xx.o [1]
  .text              ro code  0x08004980     0x4  startup_stm32f205xx.o [1]
  .text              ro code  0x08004984     0x4  startup_stm32f205xx.o [1]
  .text              ro code  0x08004988     0x4  startup_stm32f205xx.o [1]
  .text              ro code  0x0800498c     0x4  startup_stm32f205xx.o [1]
  .text              ro code  0x08004990     0x4  startup_stm32f205xx.o [1]
  .text              ro code  0x08004994     0x4  startup_stm32f205xx.o [1]
  .text              ro code  0x08004998     0x4  startup_stm32f205xx.o [1]
  .text              ro code  0x0800499c     0x4  startup_stm32f205xx.o [1]
  .text              ro code  0x080049a0     0x4  startup_stm32f205xx.o [1]
  .text              ro code  0x080049a4     0x4  startup_stm32f205xx.o [1]
  .text              ro code  0x080049a8     0x4  startup_stm32f205xx.o [1]
  .text              ro code  0x080049ac     0x4  startup_stm32f205xx.o [1]
  .text              ro code  0x080049b0     0x4  startup_stm32f205xx.o [1]
  .text              ro code  0x080049b4     0x4  startup_stm32f205xx.o [1]
  .text              ro code  0x080049b8     0x4  startup_stm32f205xx.o [1]
  .text              ro code  0x080049bc     0x4  startup_stm32f205xx.o [1]
  .text              ro code  0x080049c0     0x4  startup_stm32f205xx.o [1]
  .text              ro code  0x080049c4     0x4  startup_stm32f205xx.o [1]
  .text              ro code  0x080049c8     0x4  startup_stm32f205xx.o [1]
  .text              ro code  0x080049cc     0x4  startup_stm32f205xx.o [1]
  .text              ro code  0x080049d0     0x4  startup_stm32f205xx.o [1]
  .text              ro code  0x080049d4     0x4  startup_stm32f205xx.o [1]
  .text              ro code  0x080049d8     0x4  startup_stm32f205xx.o [1]
  .rodata            const    0x080049dc     0x0  zero_init3.o [4]
  .rodata            const    0x080049dc     0x0  lz77_init_single.o [4]
  Initializer bytes  const    0x080049dc    0xcd  <for P2-1>
                            - 0x08004aa9  0x4925

"P2", part 1 of 3:                         0x158
  P2-1                        0x20000000   0x158  <Init block>
    .data            inited   0x20000000     0x4  system_stm32f2xx.o [1]
    .data            inited   0x20000004     0xc  usbd_cdc.o [1]
    .data            inited   0x20000010    0x38  usbd_cdc.o [1]
    .data            inited   0x20000048    0x44  usbd_cdc.o [1]
    .data            inited   0x2000008c    0x44  usbd_cdc.o [1]
    .data            inited   0x200000d0    0x44  usbd_cdc.o [1]
    .data            inited   0x20000114    0x10  usbd_cdc_if.o [1]
    .data            inited   0x20000124    0x1c  usbd_desc.o [1]
    .data            inited   0x20000140    0x14  usbd_desc.o [1]
    .data            inited   0x20000154     0x4  usbd_desc.o [1]
                            - 0x20000158   0x158

"P2", part 2 of 3:                        0x6000
  CSTACK                      0x20000158  0x4000  <Block>
    CSTACK           uninit   0x20000158  0x4000  <Block tail>
  HEAP                        0x20004158  0x2000  <Block>
    HEAP             uninit   0x20004158  0x2000  <Block tail>
                            - 0x20006158  0x6000

"P2", part 3 of 3:                        0x1184
  .bss               zero     0x20006158   0x414  usbDriver.o [1]
  .bss               zero     0x2000656c   0x3b0  usbd_conf.o [1]
  .bss               zero     0x2000691c   0x224  usbDriver.o [1]
  .bss               zero     0x20006b40   0x200  usbd_desc.o [1]
  .bss               zero     0x20006d40   0x1d8  dlmalloc.o [3]
  .bss               zero     0x20006f18   0x14c  pcComm.o [1]
  .bss               zero     0x20007064    0xf8  uartDriver.o [1]
  .bss               zero     0x2000715c    0x44  bypassComm.o [1]
  .bss               zero     0x200071a0    0x44  remoteComm.o [1]
  .bss               zero     0x200071e4    0x44  uartDriver.o [1]
  .bss               zero     0x20007228    0x40  uartDriver.o [1]
  .bss               zero     0x20007268    0x24  uartDriver.o [1]
  .bss               zero     0x2000728c    0x24  uartDriver.o [1]
  .bss               zero     0x200072b0    0x18  dlmalloc.o [3]
  .bss               zero     0x200072c8     0x6  datalinkV2.o [1]
  .bss               zero     0x200072ce     0x1  uartDriver.o [1]
  .bss               zero     0x200072cf     0x1  usbd_cdc.o [1]
  .bss               zero     0x200072d0     0x4  stm32f2xx_hal.o [1]
  .bss               zero     0x200072d4     0x4  xgetmemchunk.o [3]
  .bss               zero     0x200072d8     0x1  usbd_ctlreq.o [1]
                            - 0x200072d9  0x1181


*******************************************************************************
*** INIT TABLE
***

          Address     Size
          -------     ----
Zero (__iar_zero_init3)
    1 destination range, total size 0x1181:
          0x20006158  0x1181

Copy/lz77 (__iar_lz77_init_single3)
    1 source range, total size 0xcd (59% of destination):
          0x080049dc    0xcd
    1 destination range, total size 0x158:
          0x20000000   0x158



*******************************************************************************
*** MODULE SUMMARY
***

    Module                  ro code  ro data  rw data
    ------                  -------  -------  -------
C:\Users\Usager\Documents\STM32CubeMx\usbHsIAR\usbHsIAR\EWARM\usbHsIAR\Obj: [1]
    bypassComm.o                 84                68
    datalinkV2.o                368                 6
    fifo.o                      138
    gpioDriver.o                220       24
    main.o                      272
    pcComm.o                    278               332
    remoteComm.o                 72                68
    startup_stm32f205xx.o       700
    stm32f2xx_hal.o             144                 4
    stm32f2xx_hal_cortex.o      222
    stm32f2xx_hal_gpio.o        488
    stm32f2xx_hal_msp.o          96
    stm32f2xx_hal_pcd.o       2 058
    stm32f2xx_hal_pcd_ex.o       70
    stm32f2xx_hal_rcc.o       1 044
    stm32f2xx_hal_uart.o        496
    stm32f2xx_it.o               40
    stm32f2xx_ll_usb.o        2 112
    system_stm32f2xx.o           64        2        4
    uartDriver.o                696               453
    usbDriver.o                 136             1 592
    usbd_cdc.o                  588      162      273
    usbd_cdc_if.o               132       10       16
    usbd_conf.o                 630               944
    usbd_core.o                 620
    usbd_ctlreq.o               958                 1
    usbd_desc.o                 176       30      564
    usbd_ioreq.o                 98
    -------------------------------------------------
    Total:                   13 000      228    4 325

command line: [2]
    -------------------------------------------------
    Total:

dl7M_tlf.a: [3]
    abort.o                       6
    dlmalloc.o                5 364               496
    exit.o                        4
    low_level_init.o              4
    xgetmemchunk.o               44                 4
    -------------------------------------------------
    Total:                    5 422               500

rt7M_tl.a: [4]
    ABImemcpy_unaligned.o       118
    cexit.o                      10
    cmain.o                      26
    cstartup_M.o                 12
    data_init.o                  40
    lz77_init_single.o          120
    zero_init3.o                 64
    -------------------------------------------------
    Total:                      390

shb_l.a: [5]
    exit.o                       20
    -------------------------------------------------
    Total:                       20

    Gaps                         18        2
    Linker created                        33   24 576
-----------------------------------------------------
    Grand Total:             18 850      263   29 401


*******************************************************************************
*** ENTRY LIST
***

Entry                      Address   Size  Type      Object
-----                      -------   ----  ----      ------
.iar.init_table$$Base   0x08004830          --   Gb  - Linker created -
.iar.init_table$$Limit  0x08004850          --   Gb  - Linker created -
?main                   0x08004851         Code  Gb  cmain.o [4]
APBAHBPrescTable        0x08002e24   0x10  Data  Gb  stm32f2xx_hal_rcc.o [1]
BusFault_Handler        0x080047d7    0x2  Code  Gb  stm32f2xx_it.o [1]
CDC_Control_HS          0x080045b7    0x4  Code  Lc  usbd_cdc_if.o [1]
CDC_DeInit_HS           0x080045b3    0x4  Code  Lc  usbd_cdc_if.o [1]
CDC_Init_HS             0x080045a5    0xe  Code  Lc  usbd_cdc_if.o [1]
CDC_Receive_HS          0x080045bb   0x3a  Code  Lc  usbd_cdc_if.o [1]
CDC_Transmit_HS         0x080045f5   0x26  Code  Gb  usbd_cdc_if.o [1]
CSTACK$$Base            0x20000158          --   Gb  - Linker created -
CSTACK$$Limit           0x20004158          --   Gb  - Linker created -
DebugMon_Handler        0x080047dd    0x2  Code  Gb  stm32f2xx_it.o [1]
Error_Handler           0x08003419   0x52  Code  Gb  main.o [1]
HAL_Delay               0x08001f01   0x18  Code  Wk  stm32f2xx_hal.o [1]
HAL_GPIO_Init           0x08002e35  0x1ae  Code  Gb  stm32f2xx_hal_gpio.o [1]
HAL_GPIO_WritePin       0x08002fe3    0x8  Code  Gb  stm32f2xx_hal_gpio.o [1]
HAL_GetTick             0x08001f19    0xc  Code  Wk  stm32f2xx_hal.o [1]
HAL_IncTick             0x080047f9   0x10  Code  Wk  stm32f2xx_hal.o [1]
HAL_Init                0x08003909   0x30  Code  Gb  stm32f2xx_hal.o [1]
HAL_InitTick            0x080034c1   0x28  Code  Wk  stm32f2xx_hal.o [1]
HAL_MspInit             0x08003bcb   0x60  Code  Gb  stm32f2xx_hal_msp.o [1]
HAL_NVIC_EnableIRQ      0x0800308b    0xc  Code  Gb  stm32f2xx_hal_cortex.o [1]
HAL_NVIC_SetPriority    0x08003051   0x3a  Code  Gb  stm32f2xx_hal_cortex.o [1]
HAL_NVIC_SetPriorityGrouping
                        0x08003037   0x1a  Code  Gb  stm32f2xx_hal_cortex.o [1]
HAL_PCDEx_SetRxFiFo     0x080034b7    0x8  Code  Gb  stm32f2xx_hal_pcd_ex.o [1]
HAL_PCDEx_SetTxFiFo     0x08003479   0x3e  Code  Gb  stm32f2xx_hal_pcd_ex.o [1]
HAL_PCD_ConnectCallback
                        0x08002823    0x8  Code  Gb  usbd_conf.o [1]
HAL_PCD_DataInStageCallback
                        0x080027a9   0x10  Code  Gb  usbd_conf.o [1]
HAL_PCD_DataOutStageCallback
                        0x08002797   0x12  Code  Gb  usbd_conf.o [1]
HAL_PCD_DisconnectCallback
                        0x0800282b    0x8  Code  Gb  usbd_conf.o [1]
HAL_PCD_EP_Close        0x0800251d   0x34  Code  Gb  stm32f2xx_hal_pcd.o [1]
HAL_PCD_EP_ClrStall     0x0800265d   0x3c  Code  Gb  stm32f2xx_hal_pcd.o [1]
HAL_PCD_EP_GetRxCount   0x08002595   0x12  Code  Gb  stm32f2xx_hal_pcd.o [1]
HAL_PCD_EP_Open         0x080024cf   0x4e  Code  Gb  stm32f2xx_hal_pcd.o [1]
HAL_PCD_EP_Receive      0x08002569   0x2c  Code  Gb  stm32f2xx_hal_pcd.o [1]
HAL_PCD_EP_SetStall     0x0800260b   0x42  Code  Gb  stm32f2xx_hal_pcd.o [1]
HAL_PCD_EP_Transmit     0x080025a7   0x28  Code  Gb  stm32f2xx_hal_pcd.o [1]
HAL_PCD_IRQHandler      0x08001fed  0x444  Code  Gb  stm32f2xx_hal_pcd.o [1]
HAL_PCD_ISOINIncompleteCallback
                        0x0800281b    0x8  Code  Gb  usbd_conf.o [1]
HAL_PCD_ISOOUTIncompleteCallback
                        0x08002813    0x8  Code  Gb  usbd_conf.o [1]
HAL_PCD_Init            0x08001f25   0xa6  Code  Gb  stm32f2xx_hal_pcd.o [1]
HAL_PCD_MspInit         0x08002731   0x58  Code  Gb  usbd_conf.o [1]
HAL_PCD_ResetCallback   0x080027c1   0x20  Code  Gb  usbd_conf.o [1]
HAL_PCD_ResumeCallback  0x0800280b    0x8  Code  Gb  usbd_conf.o [1]
HAL_PCD_SOFCallback     0x080027b9    0x8  Code  Gb  usbd_conf.o [1]
HAL_PCD_SetAddress      0x080024af   0x18  Code  Gb  stm32f2xx_hal_pcd.o [1]
HAL_PCD_SetupStageCallback
                        0x08002789    0xe  Code  Gb  usbd_conf.o [1]
HAL_PCD_Start           0x08001fd5   0x18  Code  Gb  stm32f2xx_hal_pcd.o [1]
HAL_PCD_SuspendCallback
                        0x080027e1   0x2a  Code  Gb  usbd_conf.o [1]
HAL_RCC_ClockConfig     0x08002c6b  0x10c  Code  Gb  stm32f2xx_hal_rcc.o [1]
HAL_RCC_GetHCLKFreq     0x08002dcb    0x6  Code  Gb  stm32f2xx_hal_rcc.o [1]
HAL_RCC_GetPCLK1Freq    0x08002dd1   0x12  Code  Gb  stm32f2xx_hal_rcc.o [1]
HAL_RCC_GetPCLK2Freq    0x08002de3   0x10  Code  Gb  stm32f2xx_hal_rcc.o [1]
HAL_RCC_GetSysClockFreq
                        0x08002d85   0x46  Code  Gb  stm32f2xx_hal_rcc.o [1]
HAL_RCC_OscConfig       0x08002a21  0x242  Code  Gb  stm32f2xx_hal_rcc.o [1]
HAL_SYSTICK_CLKSourceConfig
                        0x080030c7   0x14  Code  Gb  stm32f2xx_hal_cortex.o [1]
HAL_SYSTICK_Callback    0x080030f9    0x2  Code  Wk  stm32f2xx_hal_cortex.o [1]
HAL_SYSTICK_Config      0x0800309f   0x28  Code  Gb  stm32f2xx_hal_cortex.o [1]
HAL_SYSTICK_IRQHandler  0x080030f5    0x4  Code  Gb  stm32f2xx_hal_cortex.o [1]
HAL_UART_Init           0x08004169   0x28  Code  Gb  stm32f2xx_hal_uart.o [1]
HAL_UART_MspInit        0x08004357    0x2  Code  Wk  stm32f2xx_hal_uart.o [1]
HEAP$$Base              0x20004158          --   Gb  - Linker created -
HEAP$$Limit             0x20006158          --   Gb  - Linker created -
HS_Desc                 0x20000124   0x1c  Data  Gb  usbd_desc.o [1]
HardFault_Handler       0x080047d3    0x2  Code  Gb  stm32f2xx_it.o [1]
MemManage_Handler       0x080047d5    0x2  Code  Gb  stm32f2xx_it.o [1]
NMI_Handler             0x080047d1    0x2  Code  Gb  stm32f2xx_it.o [1]
NVIC_SetPriority        0x0800301d   0x1a  Code  Lc  stm32f2xx_hal_cortex.o [1]
OTG_HS_IRQHandler       0x080047ef    0x6  Code  Gb  stm32f2xx_it.o [1]
PCD_WriteEmptyTxFifo    0x080026a5   0x8a  Code  Lc  stm32f2xx_hal_pcd.o [1]
PendSV_Handler          0x080047df    0x2  Code  Gb  stm32f2xx_it.o [1]
Region$$Table$$Base     0x08004830          --   Gb  - Linker created -
Region$$Table$$Limit    0x08004850          --   Gb  - Linker created -
SVC_Handler             0x080047db    0x2  Code  Gb  stm32f2xx_it.o [1]
SysTick_Handler         0x080047e1    0xe  Code  Gb  stm32f2xx_it.o [1]
SystemClock_Config      0x080033a3   0x76  Code  Gb  main.o [1]
SystemCoreClock         0x20000000    0x4  Data  Gb  system_stm32f2xx.o [1]
SystemInit              0x08004751   0x30  Code  Gb  system_stm32f2xx.o [1]
UART_SetConfig          0x080041d7  0x13a  Code  Lc  stm32f2xx_hal_uart.o [1]
USART1_IRQHandler       0x08003c2d   0x44  Code  Gb  uartDriver.o [1]
USART6_IRQHandler       0x08003c71   0xa2  Code  Gb  uartDriver.o [1]
USBD_CDC                0x20000010   0x38  Data  Gb  usbd_cdc.o [1]
USBD_CDC_CfgFSDesc      0x2000008c   0x44  Data  Gb  usbd_cdc.o [1]
USBD_CDC_CfgHSDesc      0x20000048   0x44  Data  Gb  usbd_cdc.o [1]
USBD_CDC_DataIn         0x08004481   0x14  Code  Lc  usbd_cdc.o [1]
USBD_CDC_DataOut        0x08004495   0x30  Code  Lc  usbd_cdc.o [1]
USBD_CDC_DeInit         0x080043db   0x38  Code  Lc  usbd_cdc.o [1]
USBD_CDC_DeviceQualifierDesc
                        0x20000004    0xc  Data  Lc  usbd_cdc.o [1]
USBD_CDC_EP0_RxReady    0x080044c5   0x2a  Code  Lc  usbd_cdc.o [1]
USBD_CDC_GetDeviceQualifierDescriptor
                        0x08004507    0x8  Code  Gb  usbd_cdc.o [1]
USBD_CDC_GetFSCfgDesc   0x080044ef    0x8  Code  Lc  usbd_cdc.o [1]
USBD_CDC_GetHSCfgDesc   0x080044f7    0x8  Code  Lc  usbd_cdc.o [1]
USBD_CDC_GetOtherSpeedCfgDesc
                        0x080044ff    0x8  Code  Lc  usbd_cdc.o [1]
USBD_CDC_Init           0x08004359   0x78  Code  Lc  usbd_cdc.o [1]
USBD_CDC_OtherSpeedCfgDesc
                        0x200000d0   0x44  Data  Gb  usbd_cdc.o [1]
USBD_CDC_ReceivePacket  0x0800457f   0x26  Code  Gb  usbd_cdc.o [1]
USBD_CDC_RegisterInterface
                        0x08004525    0xe  Code  Gb  usbd_cdc.o [1]
USBD_CDC_SetRxBuffer    0x08004545    0xc  Code  Gb  usbd_cdc.o [1]
USBD_CDC_SetTxBuffer    0x08004533   0x12  Code  Gb  usbd_cdc.o [1]
USBD_CDC_Setup          0x08004413   0x6e  Code  Lc  usbd_cdc.o [1]
USBD_CDC_Setup::ifalt   0x200072cf    0x1  Data  Lc  usbd_cdc.o [1]
USBD_CDC_TransmitPacket
                        0x08004551   0x2e  Code  Gb  usbd_cdc.o [1]
USBD_ClrClassConfig     0x08003153    0xa  Code  Gb  usbd_core.o [1]
USBD_CtlContinueRx      0x080038dd    0x2  Code  Gb  usbd_ioreq.o [1]
USBD_CtlContinueSendData
                        0x080038b9    0x2  Code  Gb  usbd_ioreq.o [1]
USBD_CtlError           0x0800384d   0x16  Code  Gb  usbd_ctlreq.o [1]
USBD_CtlPrepareRx       0x080038c9   0x14  Code  Gb  usbd_ioreq.o [1]
USBD_CtlReceiveStatus   0x080038fb    0xe  Code  Gb  usbd_ioreq.o [1]
USBD_CtlSendData        0x080038a7   0x12  Code  Gb  usbd_ioreq.o [1]
USBD_CtlSendStatus      0x080038ed    0xe  Code  Gb  usbd_ioreq.o [1]
USBD_GetDescriptor      0x08003731   0xee  Code  Lc  usbd_ctlreq.o [1]
USBD_GetString          0x08003863   0x44  Code  Gb  usbd_ctlreq.o [1]
USBD_HS_ConfigStrDescriptor
                        0x08004661    0xa  Code  Gb  usbd_desc.o [1]
USBD_HS_DeviceDesc      0x20000140   0x14  Data  Gb  usbd_desc.o [1]
USBD_HS_DeviceDescriptor
                        0x08004629    0x8  Code  Gb  usbd_desc.o [1]
USBD_HS_InterfaceStrDescriptor
                        0x0800466b    0xa  Code  Gb  usbd_desc.o [1]
USBD_HS_LangIDStrDescriptor
                        0x08004631    0x8  Code  Gb  usbd_desc.o [1]
USBD_HS_ManufacturerStrDescriptor
                        0x08004643    0x8  Code  Gb  usbd_desc.o [1]
USBD_HS_ProductStrDescriptor
                        0x08004639    0xa  Code  Gb  usbd_desc.o [1]
USBD_HS_SerialStrDescriptor
                        0x08004657    0xa  Code  Gb  usbd_desc.o [1]
USBD_Init               0x080030fb   0x28  Code  Gb  usbd_core.o [1]
USBD_Interface_fops_HS  0x20000114   0x10  Data  Gb  usbd_cdc_if.o [1]
USBD_LL_ClearStallEP    0x0800291b   0x1a  Code  Gb  usbd_conf.o [1]
USBD_LL_CloseEP         0x080028e7   0x1a  Code  Gb  usbd_conf.o [1]
USBD_LL_DataInStage     0x08003221   0x9e  Code  Gb  usbd_core.o [1]
USBD_LL_DataOutStage    0x080031b7   0x6a  Code  Gb  usbd_core.o [1]
USBD_LL_DevConnected    0x08003349    0x4  Code  Gb  usbd_core.o [1]
USBD_LL_DevDisconnected
                        0x0800334d   0x14  Code  Gb  usbd_core.o [1]
USBD_LL_GetRxDataSize   0x0800299f    0x8  Code  Gb  usbd_conf.o [1]
USBD_LL_Init            0x08002833   0x64  Code  Gb  usbd_conf.o [1]
USBD_LL_IsStallEP       0x08002935   0x1c  Code  Gb  usbd_conf.o [1]
USBD_LL_IsoINIncomplete
                        0x08003341    0x4  Code  Gb  usbd_core.o [1]
USBD_LL_IsoOUTIncomplete
                        0x08003345    0x4  Code  Gb  usbd_core.o [1]
USBD_LL_OpenEP          0x080028c7   0x20  Code  Gb  usbd_conf.o [1]
USBD_LL_PrepareReceive  0x08002985   0x1a  Code  Gb  usbd_conf.o [1]
USBD_LL_Reset           0x080032bf   0x44  Code  Gb  usbd_core.o [1]
USBD_LL_Resume          0x08003317    0x8  Code  Gb  usbd_core.o [1]
USBD_LL_SOF             0x08003325   0x1c  Code  Gb  usbd_core.o [1]
USBD_LL_SetSpeed        0x08003303    0x6  Code  Gb  usbd_core.o [1]
USBD_LL_SetUSBAddress   0x08002951   0x1a  Code  Gb  usbd_conf.o [1]
USBD_LL_SetupStage      0x0800315d   0x5a  Code  Gb  usbd_core.o [1]
USBD_LL_StallEP         0x08002901   0x1a  Code  Gb  usbd_conf.o [1]
USBD_LL_Start           0x080028ad   0x1a  Code  Gb  usbd_conf.o [1]
USBD_LL_Suspend         0x08003309    0xe  Code  Gb  usbd_core.o [1]
USBD_LL_Transmit        0x0800296b   0x1a  Code  Gb  usbd_conf.o [1]
USBD_LangIDDesc         0x20000154    0x4  Data  Gb  usbd_desc.o [1]
USBD_ParseSetupRequest  0x08003825   0x28  Code  Gb  usbd_ctlreq.o [1]
USBD_RegisterClass      0x08003123   0x10  Code  Gb  usbd_core.o [1]
USBD_SetClassConfig     0x0800313d   0x16  Code  Gb  usbd_core.o [1]
USBD_SetConfig::cfgidx  0x200072d8    0x1  Data  Lc  usbd_ctlreq.o [1]
USBD_Start              0x08003133    0xa  Code  Gb  usbd_core.o [1]
USBD_StdDevReq          0x080034e9  0x13e  Code  Gb  usbd_ctlreq.o [1]
USBD_StdEPReq           0x08003661   0xc6  Code  Gb  usbd_ctlreq.o [1]
USBD_StdItfReq          0x0800362d   0x34  Code  Gb  usbd_ctlreq.o [1]
USBD_StrDesc            0x20006b40  0x200  Data  Gb  usbd_desc.o [1]
USB_ActivateEndpoint    0x080018e1   0x76  Code  Gb  stm32f2xx_ll_usb.o [1]
USB_ActivateSetup       0x08001e4d   0x2e  Code  Gb  stm32f2xx_ll_usb.o [1]
USB_CoreInit            0x080016c1   0x66  Code  Gb  stm32f2xx_ll_usb.o [1]
USB_CoreReset           0x08001eab   0x2a  Code  Lc  stm32f2xx_ll_usb.o [1]
USB_DeactivateEndpoint  0x08001957   0x50  Code  Gb  stm32f2xx_ll_usb.o [1]
USB_DevConnect          0x08001dc7    0xe  Code  Gb  stm32f2xx_ll_usb.o [1]
USB_DevDisconnect       0x08001dd5    0xc  Code  Gb  stm32f2xx_ll_usb.o [1]
USB_DevInit             0x08001761  0x10e  Code  Gb  stm32f2xx_ll_usb.o [1]
USB_DisableGlobalInt    0x0800172f    0x6  Code  Gb  stm32f2xx_ll_usb.o [1]
USB_EP0StartXfer        0x08001b93   0xd2  Code  Gb  stm32f2xx_ll_usb.o [1]
USB_EP0_OutStart        0x08001e7b   0x30  Code  Gb  stm32f2xx_ll_usb.o [1]
USB_EPClearStall        0x08001d51   0x5a  Code  Gb  stm32f2xx_ll_usb.o [1]
USB_EPSetStall          0x08001d03   0x4e  Code  Gb  stm32f2xx_ll_usb.o [1]
USB_EPStartXfer         0x080019a7  0x1c0  Code  Gb  stm32f2xx_ll_usb.o [1]
USB_EnableGlobalInt     0x08001727    0x8  Code  Gb  stm32f2xx_ll_usb.o [1]
USB_FlushRxFifo         0x0800188d   0x1a  Code  Gb  stm32f2xx_ll_usb.o [1]
USB_FlushTxFifo         0x0800186f   0x1e  Code  Gb  stm32f2xx_ll_usb.o [1]
USB_GetDevSpeed         0x080018ad   0x34  Code  Gb  stm32f2xx_ll_usb.o [1]
USB_GetMode             0x08001e45    0x8  Code  Gb  stm32f2xx_ll_usb.o [1]
USB_ReadDevAllInEpInterrupt
                        0x08001e03    0xe  Code  Gb  stm32f2xx_ll_usb.o [1]
USB_ReadDevAllOutEpInterrupt
                        0x08001df5    0xe  Code  Gb  stm32f2xx_ll_usb.o [1]
USB_ReadDevInEPInterrupt
                        0x08001e25   0x20  Code  Gb  stm32f2xx_ll_usb.o [1]
USB_ReadDevOutEPInterrupt
                        0x08001e11   0x14  Code  Gb  stm32f2xx_ll_usb.o [1]
USB_ReadInterrupts      0x08001ded    0x8  Code  Gb  stm32f2xx_ll_usb.o [1]
USB_ReadPacket          0x08001ce5   0x1e  Code  Gb  stm32f2xx_ll_usb.o [1]
USB_SetCurrentMode      0x0800173b   0x26  Code  Gb  stm32f2xx_ll_usb.o [1]
USB_SetDevAddress       0x08001dab   0x12  Code  Gb  stm32f2xx_ll_usb.o [1]
USB_SetDevSpeed         0x080018a7    0x6  Code  Gb  stm32f2xx_ll_usb.o [1]
USB_WritePacket         0x08001cbf   0x26  Code  Gb  stm32f2xx_ll_usb.o [1]
UsageFault_Handler      0x080047d9    0x2  Code  Gb  stm32f2xx_it.o [1]
__cmain                 0x08004851         Code  Gb  cmain.o [4]
__data_GetMemChunk      0x08001681   0x2c  Code  Gb  xgetmemchunk.o [3]
__data_GetMemChunk::start
                        0x200072d4    0x4  Data  Lc  xgetmemchunk.o [3]
__exit                  0x080016ad   0x14  Code  Gb  exit.o [5]
__iar_data_init3        0x08004809   0x28  Code  Gb  data_init.o [4]
__iar_dlfree            0x08001157  0x51a  Code  Gb  dlmalloc.o [3]
__iar_dlmalloc          0x08000ea1  0x2aa  Code  Gb  dlmalloc.o [3]
__iar_lz77_init_single3
                        0x080046d9   0x78  Code  Gb  lz77_init_single.o [4]
__iar_program_start     0x080048a9         Code  Gb  cstartup_M.o [4]
__iar_unaligned___aeabi_memcpy
                        0x080029a9         Code  Gb  ABImemcpy_unaligned.o [4]
__iar_unaligned___aeabi_memcpy4
                        0x080029c9         Code  Gb  ABImemcpy_unaligned.o [4]
__iar_unaligned___aeabi_memcpy8
                        0x080029c9         Code  Gb  ABImemcpy_unaligned.o [4]
__iar_zero_init3        0x08004791   0x40  Code  Gb  zero_init3.o [4]
__low_level_init        0x0800486b    0x4  Code  Gb  low_level_init.o [3]
__vector_table          0x08000000         Data  Gb  startup_stm32f205xx.o [1]
_call_main              0x0800485d         Code  Gb  cmain.o [4]
_exit                   0x08004875         Code  Gb  cexit.o [4]
_gm_                    0x20006d40  0x1d8  Data  Lc  dlmalloc.o [3]
_main                   0x08004867         Code  Gb  cmain.o [4]
abort                   0x08001679    0x6  Code  Gb  abort.o [3]
bypassCommInit          0x08003a19    0xe  Code  Gb  bypassComm.o [1]
bypassCommRun           0x08003a27   0x3c  Code  Gb  bypassComm.o [1]
bypassCommRun::message  0x2000715c   0x24  Data  Lc  bypassComm.o [1]
bypassCommRun::sendBuffer
                        0x20007180   0x20  Data  Lc  bypassComm.o [1]
bypassRecvMessage       0x20007268   0x24  Data  Lc  uartDriver.o [1]
dlV2Checksum            0x0800401d   0x38  Code  Gb  datalinkV2.o [1]
dlV2RecvFSM             0x08003f2d   0xea  Code  Gb  datalinkV2.o [1]
dlV2RecvFSM::bypassRecvCount
                        0x200072cc    0x1  Data  Lc  datalinkV2.o [1]
dlV2RecvFSM::bypassState
                        0x200072c9    0x1  Data  Lc  datalinkV2.o [1]
dlV2RecvFSM::pcRecvCount
                        0x200072cd    0x1  Data  Lc  datalinkV2.o [1]
dlV2RecvFSM::pcState    0x200072ca    0x1  Data  Lc  datalinkV2.o [1]
dlV2RecvFSM::remoteRecvCount
                        0x200072cb    0x1  Data  Lc  datalinkV2.o [1]
dlV2RecvFSM::remoteState
                        0x200072c8    0x1  Data  Lc  datalinkV2.o [1]
dlV2Serializer          0x08003ee5   0x46  Code  Gb  datalinkV2.o [1]
exit                    0x0800486f    0x4  Code  Gb  exit.o [3]
fifoAddData             0x080040dd   0x3c  Code  Gb  fifo.o [1]
fifoRemoveData          0x08004119   0x4e  Code  Gb  fifo.o [1]
gpioInit                0x0800393d   0x68  Code  Gb  gpioDriver.o [1]
gpioLed1                0x08004880    0x8  Data  Gb  gpioDriver.o [1]
gpioLed2                0x08004888    0x8  Data  Gb  gpioDriver.o [1]
gpioLed3                0x08004890    0x8  Data  Gb  gpioDriver.o [1]
gpioUartBypassInit      0x080039c9   0x18  Code  Gb  gpioDriver.o [1]
gpioUartRemoteInit      0x080039b1   0x18  Code  Gb  gpioDriver.o [1]
gpioWritePin            0x08003a05   0x14  Code  Gb  gpioDriver.o [1]
hUsbDeviceHS            0x2000691c  0x224  Data  Gb  usbDriver.o [1]
hpcd_USB_OTG_HS         0x2000656c  0x3b0  Data  Gb  usbd_conf.o [1]
init_mparams            0x080001a1   0x32  Code  Lc  dlmalloc.o [3]
init_top                0x080001d3   0x34  Code  Lc  dlmalloc.o [3]
main                    0x08003369   0x3a  Code  Gb  main.o [1]
modeSelection           0x20006f3c    0x1  Data  Gb  pcComm.o [1]
mparams                 0x200072b0   0x18  Data  Lc  dlmalloc.o [3]
pcCommInit              0x08003ab5    0x4  Code  Gb  pcComm.o [1]
pcCommRun               0x08003ab9   0xfc  Code  Gb  pcComm.o [1]
pcCommRun::pcRecvMessage
                        0x20006f18   0x24  Data  Lc  pcComm.o [1]
pcCommRun::pcTransmitBuffer
                        0x20007044   0x20  Data  Lc  pcComm.o [1]
pcCommRun::usbRecvBuf   0x20006f40  0x100  Data  Lc  pcComm.o [1]
pcCommRun::usbRecvMessageLen
                        0x20007040    0x4  Data  Lc  pcComm.o [1]
prepend_alloc           0x08000207  0x372  Code  Lc  dlmalloc.o [3]
remoteCommInit          0x08003a6d    0xe  Code  Gb  remoteComm.o [1]
remoteCommRun           0x08003a7b   0x32  Code  Gb  remoteComm.o [1]
remoteCommRun::message  0x200071a0   0x24  Data  Lc  remoteComm.o [1]
remoteCommRun::sendBuffer
                        0x200071c4   0x20  Data  Lc  remoteComm.o [1]
remoteRecvMessage       0x2000728c   0x24  Data  Lc  uartDriver.o [1]
remoteTx                0x20007064   0xf8  Data  Lc  uartDriver.o [1]
segment_holding         0x08000185   0x1c  Code  Lc  dlmalloc.o [3]
sys_alloc               0x08000579  0x388  Code  Lc  dlmalloc.o [3]
tmalloc_large           0x0800090d  0x380  Code  Lc  dlmalloc.o [3]
tmalloc_small           0x08000c8d  0x206  Code  Lc  dlmalloc.o [3]
uartBypassHandle        0x20007228   0x40  Data  Lc  uartDriver.o [1]
uartBypassInit          0x08003d6d   0x58  Code  Gb  uartDriver.o [1]
uartBypassRecvFlag      0x200072ce    0x1  Data  Gb  uartDriver.o [1]
uartCopyMessage         0x08003ddf   0x4a  Code  Gb  uartDriver.o [1]
uartDisableRxInterrupt  0x08003e83   0x1c  Code  Gb  uartDriver.o [1]
uartEnableRxInterrupt   0x08003e9f   0x1c  Code  Gb  uartDriver.o [1]
uartRemoteHandle        0x200071e8   0x40  Data  Lc  uartDriver.o [1]
uartRemoteInit          0x08003d13   0x5a  Code  Gb  uartDriver.o [1]
uartRemoteRecvFlag      0x200071e4    0x1  Data  Gb  uartDriver.o [1]
uartSendBytes           0x08003e29   0x5a  Code  Gb  uartDriver.o [1]
usbInit                 0x08004055   0x28  Code  Gb  usbDriver.o [1]
usbReceive              0x08004081   0x48  Code  Gb  usbDriver.o [1]
usbRxFifo               0x20006158  0x414  Data  Gb  usbDriver.o [1]
usbSend                 0x0800407d    0x4  Code  Gb  usbDriver.o [1]
uwTick                  0x200072d0    0x4  Data  Gb  stm32f2xx_hal.o [1]


[1] = C:\Users\Usager\Documents\STM32CubeMx\usbHsIAR\usbHsIAR\EWARM\usbHsIAR\Obj
[2] = command line
[3] = dl7M_tlf.a
[4] = rt7M_tl.a
[5] = shb_l.a

  18 850 bytes of readonly  code memory
     263 bytes of readonly  data memory
  29 401 bytes of readwrite data memory

Errors: none
Warnings: none
